{
  "_format": "hh-sol-artifact-1",
  "contractName": "FundContract",
  "sourceName": "src/backend/contracts/FundContract.sol",
  "abi": [
    {
      "inputs": [
        {
          "internalType": "address",
          "name": "_owner",
          "type": "address"
        },
        {
          "internalType": "string",
          "name": "_title",
          "type": "string"
        },
        {
          "internalType": "string",
          "name": "_description",
          "type": "string"
        },
        {
          "internalType": "uint256",
          "name": "_target",
          "type": "uint256"
        },
        {
          "internalType": "uint256",
          "name": "_deadline",
          "type": "uint256"
        },
        {
          "internalType": "string",
          "name": "_image",
          "type": "string"
        }
      ],
      "name": "createCampaign",
      "outputs": [],
      "stateMutability": "nonpayable",
      "type": "function"
    },
    {
      "inputs": [
        {
          "internalType": "uint256",
          "name": "_id",
          "type": "uint256"
        }
      ],
      "name": "donateToCampaign",
      "outputs": [],
      "stateMutability": "payable",
      "type": "function"
    },
    {
      "inputs": [
        {
          "internalType": "uint256",
          "name": "",
          "type": "uint256"
        }
      ],
      "name": "fundCampaigns",
      "outputs": [
        {
          "internalType": "address",
          "name": "owner",
          "type": "address"
        },
        {
          "internalType": "string",
          "name": "title",
          "type": "string"
        },
        {
          "internalType": "string",
          "name": "description",
          "type": "string"
        },
        {
          "internalType": "uint256",
          "name": "target",
          "type": "uint256"
        },
        {
          "internalType": "uint256",
          "name": "deadline",
          "type": "uint256"
        },
        {
          "internalType": "uint256",
          "name": "amountCollected",
          "type": "uint256"
        },
        {
          "internalType": "string",
          "name": "image",
          "type": "string"
        }
      ],
      "stateMutability": "view",
      "type": "function"
    },
    {
      "inputs": [],
      "name": "getCampaigns",
      "outputs": [
        {
          "components": [
            {
              "internalType": "address",
              "name": "owner",
              "type": "address"
            },
            {
              "internalType": "string",
              "name": "title",
              "type": "string"
            },
            {
              "internalType": "string",
              "name": "description",
              "type": "string"
            },
            {
              "internalType": "uint256",
              "name": "target",
              "type": "uint256"
            },
            {
              "internalType": "uint256",
              "name": "deadline",
              "type": "uint256"
            },
            {
              "internalType": "uint256",
              "name": "amountCollected",
              "type": "uint256"
            },
            {
              "internalType": "string",
              "name": "image",
              "type": "string"
            },
            {
              "internalType": "address[]",
              "name": "donators",
              "type": "address[]"
            },
            {
              "internalType": "uint256[]",
              "name": "donations",
              "type": "uint256[]"
            }
          ],
          "internalType": "struct FundContract.FundCampaign[]",
          "name": "",
          "type": "tuple[]"
        }
      ],
      "stateMutability": "view",
      "type": "function"
    },
    {
      "inputs": [],
      "name": "numberOfCampaigns",
      "outputs": [
        {
          "internalType": "uint256",
          "name": "",
          "type": "uint256"
        }
      ],
      "stateMutability": "view",
      "type": "function"
    }
  ],
  "bytecode": "0x6080604052600060015534801561001557600080fd5b50611c57806100256000396000f3fe60806040526004361061004a5760003560e01c806307ca140d1461004f57806342a4fda81461007a5780639943e3a114610096578063a6b03633146100bf578063ac095d0a146100ea575b600080fd5b34801561005b57600080fd5b5061006461012d565b6040516100719190611127565b60405180910390f35b610094600480360381019061008f9190611182565b610133565b005b3480156100a257600080fd5b506100bd60048036038101906100b89190611353565b610393565b005b3480156100cb57600080fd5b506100d46106f9565b6040516100e191906117db565b60405180910390f35b3480156100f657600080fd5b50610111600480360381019061010c9190611182565b610b4f565b6040516101249796959493929190611856565b60405180910390f35b60015481565b60003490506101776040518060400160405280600981526020017f616d6f756e74203d20000000000000000000000000000000000000000000000081525082610d49565b6000806000848152602001908152602001600020905080600701339080600181540180825580915050600190039060005260206000200160009091909190916101000a81548173ffffffffffffffffffffffffffffffffffffffff021916908373ffffffffffffffffffffffffffffffffffffffff1602179055508060080182908060018154018082558091505060019003906000526020600020016000909190919091505560008160000160009054906101000a900473ffffffffffffffffffffffffffffffffffffffff1673ffffffffffffffffffffffffffffffffffffffff16836040516102679061190b565b60006040518083038185875af1925050503d80600081146102a4576040519150601f19603f3d011682016040523d82523d6000602084013e6102a9565b606091505b505090506102f06040518060400160405280601b81526020017f63616d706169676e2e616d6f756e74436f6c6c6563746564203d2000000000008152508360050154610d49565b61032f6040518060400160405280600881526020017f616d6f756e203d2000000000000000000000000000000000000000000000000081525084610d49565b61036e6040518060400160405280600781526020017f73656e74203d200000000000000000000000000000000000000000000000000081525082610de5565b801561038d57828260050154610384919061194f565b82600501819055505b50505050565b6103d26040518060400160405280600981526020017f5f6f776e6572203d20000000000000000000000000000000000000000000000081525087610e81565b6104116040518060400160405280600981526020017f5f7469746c65203d20000000000000000000000000000000000000000000000081525086610f1d565b6104506040518060400160405280600f81526020017f5f6465736372697074696f6e203d20000000000000000000000000000000000081525085610f1d565b61048f6040518060400160405280600a81526020017f5f746172676574203d200000000000000000000000000000000000000000000081525084610d49565b6104ce6040518060400160405280600c81526020017f5f646561646c696e65203d20000000000000000000000000000000000000000081525083610d49565b61050d6040518060400160405280600981526020017f5f696d616765203d20000000000000000000000000000000000000000000000081525082610f1d565b6000806000600154815260200190815260200160002090506105686040518060400160405280600b81526020017f63616d706169676e203d200000000000000000000000000000000000000000008152508260040154610d49565b6105a96040518060400160405280601481526020017f6e756d6265724f6643616d706169676e73203d20000000000000000000000000815250600154610d49565b6105e86040518060400160405280601281526020017f626c6f636b2e74696d657374616d70203d20000000000000000000000000000081525042610d49565b4281600401541061062e576040517f08c379a000000000000000000000000000000000000000000000000000000000815260040161062590611a17565b60405180910390fd5b868160000160006101000a81548173ffffffffffffffffffffffffffffffffffffffff021916908373ffffffffffffffffffffffffffffffffffffffff16021790555085816001019080519060200190610689929190610fff565b50848160020190805190602001906106a2929190610fff565b5083816003018190555082816004018190555060008160050181905550818160060190805190602001906106d7929190610fff565b50600160008154809291906106eb90611a37565b919050555050505050505050565b6060600060015467ffffffffffffffff81111561071957610718611228565b5b60405190808252806020026020018201604052801561075257816020015b61073f611085565b8152602001906001900390816107375790505b5090506107966040518060400160405280600f81526020017f6e756d6265724f6643616d70203d200000000000000000000000000000000000815250600154610d49565b60005b600154811015610b47576107e26040518060400160405280600481526020017f69203a200000000000000000000000000000000000000000000000000000000081525082610d49565b6000806000838152602001908152602001600020905080604051806101200160405290816000820160009054906101000a900473ffffffffffffffffffffffffffffffffffffffff1673ffffffffffffffffffffffffffffffffffffffff1673ffffffffffffffffffffffffffffffffffffffff16815260200160018201805461086b90611aaf565b80601f016020809104026020016040519081016040528092919081815260200182805461089790611aaf565b80156108e45780601f106108b9576101008083540402835291602001916108e4565b820191906000526020600020905b8154815290600101906020018083116108c757829003601f168201915b505050505081526020016002820180546108fd90611aaf565b80601f016020809104026020016040519081016040528092919081815260200182805461092990611aaf565b80156109765780601f1061094b57610100808354040283529160200191610976565b820191906000526020600020905b81548152906001019060200180831161095957829003601f168201915b505050505081526020016003820154815260200160048201548152602001600582015481526020016006820180546109ad90611aaf565b80601f01602080910402602001604051908101604052809291908181526020018280546109d990611aaf565b8015610a265780601f106109fb57610100808354040283529160200191610a26565b820191906000526020600020905b815481529060010190602001808311610a0957829003601f168201915b5050505050815260200160078201805480602002602001604051908101604052809291908181526020018280548015610ab457602002820191906000526020600020905b8160009054906101000a900473ffffffffffffffffffffffffffffffffffffffff1673ffffffffffffffffffffffffffffffffffffffff1681526020019060010190808311610a6a575b5050505050815260200160088201805480602002602001604051908101604052809291908181526020018280548015610b0c57602002820191906000526020600020905b815481526020019060010190808311610af8575b505050505081525050838381518110610b2857610b27611ae1565b5b6020026020010181905250508080610b3f90611a37565b915050610799565b508091505090565b60006020528060005260406000206000915090508060000160009054906101000a900473ffffffffffffffffffffffffffffffffffffffff1690806001018054610b9890611aaf565b80601f0160208091040260200160405190810160405280929190818152602001828054610bc490611aaf565b8015610c115780601f10610be657610100808354040283529160200191610c11565b820191906000526020600020905b815481529060010190602001808311610bf457829003601f168201915b505050505090806002018054610c2690611aaf565b80601f0160208091040260200160405190810160405280929190818152602001828054610c5290611aaf565b8015610c9f5780601f10610c7457610100808354040283529160200191610c9f565b820191906000526020600020905b815481529060010190602001808311610c8257829003601f168201915b505050505090806003015490806004015490806005015490806006018054610cc690611aaf565b80601f0160208091040260200160405190810160405280929190818152602001828054610cf290611aaf565b8015610d3f5780601f10610d1457610100808354040283529160200191610d3f565b820191906000526020600020905b815481529060010190602001808311610d2257829003601f168201915b5050505050905087565b610de18282604051602401610d5f929190611b10565b6040516020818303038152906040527fb60e72cc000000000000000000000000000000000000000000000000000000007bffffffffffffffffffffffffffffffffffffffffffffffffffffffff19166020820180517bffffffffffffffffffffffffffffffffffffffffffffffffffffffff8381831617835250505050610fb9565b5050565b610e7d8282604051602401610dfb929190611b5b565b6040516020818303038152906040527fc3b55635000000000000000000000000000000000000000000000000000000007bffffffffffffffffffffffffffffffffffffffffffffffffffffffff19166020820180517bffffffffffffffffffffffffffffffffffffffffffffffffffffffff8381831617835250505050610fb9565b5050565b610f198282604051602401610e97929190611b8b565b6040516020818303038152906040527f319af333000000000000000000000000000000000000000000000000000000007bffffffffffffffffffffffffffffffffffffffffffffffffffffffff19166020820180517bffffffffffffffffffffffffffffffffffffffffffffffffffffffff8381831617835250505050610fb9565b5050565b610fb58282604051602401610f33929190611bbb565b6040516020818303038152906040527f4b5c4277000000000000000000000000000000000000000000000000000000007bffffffffffffffffffffffffffffffffffffffffffffffffffffffff19166020820180517bffffffffffffffffffffffffffffffffffffffffffffffffffffffff8381831617835250505050610fb9565b5050565b610fd081610fc8610fd3610ff4565b63ffffffff16565b50565b60006a636f6e736f6c652e6c6f679050600080835160208501845afa505050565b6110e7819050919050565b82805461100b90611aaf565b90600052602060002090601f01602090048101928261102d5760008555611074565b82601f1061104657805160ff1916838001178555611074565b82800160010185558215611074579182015b82811115611073578251825591602001919060010190611058565b5b50905061108191906110f1565b5090565b604051806101200160405280600073ffffffffffffffffffffffffffffffffffffffff16815260200160608152602001606081526020016000815260200160008152602001600081526020016060815260200160608152602001606081525090565b6110ef611bf2565b565b5b8082111561110a5760008160009055506001016110f2565b5090565b6000819050919050565b6111218161110e565b82525050565b600060208201905061113c6000830184611118565b92915050565b6000604051905090565b600080fd5b600080fd5b61115f8161110e565b811461116a57600080fd5b50565b60008135905061117c81611156565b92915050565b6000602082840312156111985761119761114c565b5b60006111a68482850161116d565b91505092915050565b600073ffffffffffffffffffffffffffffffffffffffff82169050919050565b60006111da826111af565b9050919050565b6111ea816111cf565b81146111f557600080fd5b50565b600081359050611207816111e1565b92915050565b600080fd5b600080fd5b6000601f19601f8301169050919050565b7f4e487b7100000000000000000000000000000000000000000000000000000000600052604160045260246000fd5b61126082611217565b810181811067ffffffffffffffff8211171561127f5761127e611228565b5b80604052505050565b6000611292611142565b905061129e8282611257565b919050565b600067ffffffffffffffff8211156112be576112bd611228565b5b6112c782611217565b9050602081019050919050565b82818337600083830152505050565b60006112f66112f1846112a3565b611288565b90508281526020810184848401111561131257611311611212565b5b61131d8482856112d4565b509392505050565b600082601f83011261133a5761133961120d565b5b813561134a8482602086016112e3565b91505092915050565b60008060008060008060c087890312156113705761136f61114c565b5b600061137e89828a016111f8565b965050602087013567ffffffffffffffff81111561139f5761139e611151565b5b6113ab89828a01611325565b955050604087013567ffffffffffffffff8111156113cc576113cb611151565b5b6113d889828a01611325565b94505060606113e989828a0161116d565b93505060806113fa89828a0161116d565b92505060a087013567ffffffffffffffff81111561141b5761141a611151565b5b61142789828a01611325565b9150509295509295509295565b600081519050919050565b600082825260208201905092915050565b6000819050602082019050919050565b611469816111cf565b82525050565b600081519050919050565b600082825260208201905092915050565b60005b838110156114a957808201518184015260208101905061148e565b838111156114b8576000848401525b50505050565b60006114c98261146f565b6114d3818561147a565b93506114e381856020860161148b565b6114ec81611217565b840191505092915050565b6115008161110e565b82525050565b600081519050919050565b600082825260208201905092915050565b6000819050602082019050919050565b600061153e8383611460565b60208301905092915050565b6000602082019050919050565b600061156282611506565b61156c8185611511565b935061157783611522565b8060005b838110156115a857815161158f8882611532565b975061159a8361154a565b92505060018101905061157b565b5085935050505092915050565b600081519050919050565b600082825260208201905092915050565b6000819050602082019050919050565b60006115ed83836114f7565b60208301905092915050565b6000602082019050919050565b6000611611826115b5565b61161b81856115c0565b9350611626836115d1565b8060005b8381101561165757815161163e88826115e1565b9750611649836115f9565b92505060018101905061162a565b5085935050505092915050565b60006101208301600083015161167d6000860182611460565b506020830151848203602086015261169582826114be565b915050604083015184820360408601526116af82826114be565b91505060608301516116c460608601826114f7565b5060808301516116d760808601826114f7565b5060a08301516116ea60a08601826114f7565b5060c083015184820360c086015261170282826114be565b91505060e083015184820360e086015261171c8282611557565b9150506101008301518482036101008601526117388282611606565b9150508091505092915050565b60006117518383611664565b905092915050565b6000602082019050919050565b600061177182611434565b61177b818561143f565b93508360208202850161178d85611450565b8060005b858110156117c957848403895281516117aa8582611745565b94506117b583611759565b925060208a01995050600181019050611791565b50829750879550505050505092915050565b600060208201905081810360008301526117f58184611766565b905092915050565b611806816111cf565b82525050565b600082825260208201905092915050565b60006118288261146f565b611832818561180c565b935061184281856020860161148b565b61184b81611217565b840191505092915050565b600060e08201905061186b600083018a6117fd565b818103602083015261187d818961181d565b90508181036040830152611891818861181d565b90506118a06060830187611118565b6118ad6080830186611118565b6118ba60a0830185611118565b81810360c08301526118cc818461181d565b905098975050505050505050565b600081905092915050565b50565b60006118f56000836118da565b9150611900826118e5565b600082019050919050565b6000611916826118e8565b9150819050919050565b7f4e487b7100000000000000000000000000000000000000000000000000000000600052601160045260246000fd5b600061195a8261110e565b91506119658361110e565b9250827fffffffffffffffffffffffffffffffffffffffffffffffffffffffffffffffff0382111561199a57611999611920565b5b828201905092915050565b7f54686520646561646c696e652073686f756c642062652061206461746520696e60008201527f20746865206675747572652e0000000000000000000000000000000000000000602082015250565b6000611a01602c8361180c565b9150611a0c826119a5565b604082019050919050565b60006020820190508181036000830152611a30816119f4565b9050919050565b6000611a428261110e565b91507fffffffffffffffffffffffffffffffffffffffffffffffffffffffffffffffff821415611a7557611a74611920565b5b600182019050919050565b7f4e487b7100000000000000000000000000000000000000000000000000000000600052602260045260246000fd5b60006002820490506001821680611ac757607f821691505b60208210811415611adb57611ada611a80565b5b50919050565b7f4e487b7100000000000000000000000000000000000000000000000000000000600052603260045260246000fd5b60006040820190508181036000830152611b2a818561181d565b9050611b396020830184611118565b9392505050565b60008115159050919050565b611b5581611b40565b82525050565b60006040820190508181036000830152611b75818561181d565b9050611b846020830184611b4c565b9392505050565b60006040820190508181036000830152611ba5818561181d565b9050611bb460208301846117fd565b9392505050565b60006040820190508181036000830152611bd5818561181d565b90508181036020830152611be9818461181d565b90509392505050565b7f4e487b7100000000000000000000000000000000000000000000000000000000600052605160045260246000fdfea26469706673582212204268d382165a38e3682464b321e3afd6c411c447bf9f9604e91336c8ffc5cd3264736f6c63430008090033",
  "linkReferences": {},
  "deployedLinkReferences": {}
}